:020000040800F2
:1000000000000220C901000843190008D3010008BC
:1000100045190008471900084919000800000000A8
:100020000000000000000000000000004B19000864
:100030004D190008000000004F1900085119000870
:10004000C5010008C5010008C5010008C501000878
:10005000C5010008C5010008C5010008C501000868
:10006000C5010008C5010008C5010008C501000858
:1000700075170008C501000859190008C5010008D6
:10008000C5010008C5010008C5010008C501000838
:10009000C5010008C5010008C5010008C501000828
:1000A000C5010008C5010008C5010008C501000818
:1000B000C5010008C5010008C5010008C501000808
:1000C000C5010008C5010008C5010008C5010008F8
:1000D000C5010008C5010008C50100088517000812
:1000E000C5010008C5010008C5010008C5010008D8
:1000F000C5010008C5010008C5010008C5010008C8
:10010000C5010008C5010008C5010008C5010008B7
:10011000C5010008C5010008C5010008C5010008A7
:10012000C5010008C5010008C5010008C501000897
:10013000C50100080000000000000000C501000823
:10014000C5010008C5010008C5010008C501000877
:10015000C5010008C5010008C5010008C501000867
:10016000C5010008C5010008C5010008C501000857
:10017000C5010008C5010008C50100080000000015
:1001800000000000C50100080000000000000000A1
:10019000C50100080000000000000000C5010008C3
:1001A000000000000000000000000000C501000881
:1001B000C5010008C5010008C5010008C501000807
:1001C000C501000800BEFEE708B500F093F800BEC8
:1001D000FEE71EF0040F0CBFEFF30880EFF3098079
:1001E0007146414A10472DE9F04182B004468846E5
:1001F000124B5E6B9F6B9D6A1B6B13F0020F03D05B
:100200000E4BDB6A002B0CDB0D4801F051FFCDF8E3
:1002100000803B4632462946204601F04FFE00BE94
:10022000FEE74BF6AB6101F0C3FE0028ECD0034BB8
:100230004FF00042DA6202B0BDE8F08100ED00E06C
:100240003077000800BEFEE71EF0040F0CBFEFF38E
:100250000880EFF309807146244A10472DE9F041E8
:1002600082B004468846084B5E6B9F6B9D6A0748C8
:1002700001F01EFFCDF800803B463246294620465D
:1002800001F01CFE00BEFEE700ED00E04077000834
:100290001EF0040F0CBFEFF30880EFF309807146E6
:1002A000134A10472DE9F04182B004468846084BB6
:1002B0005E6B9F6B9D6A074801F0FAFECDF80080E7
:1002C0003B4632462946204601F0F8FD00BEFEE7D7
:1002D00000ED00E04C77000800BEFEE700BEFEE740
:1002E00000BEFEE770470000E70100085D0200085D
:1002F000A502000800B583B001F0D4FD304B314AAF
:100300001360314A1360314B314A03E052F8041B49
:1003100043F8041B2F498B42F8D32A4B1A682E4B03
:100320009A4200D0FEE7284B1A682C4B9A42F9D12A
:10033000234B2B4A13602B4A13602B4B02E0002205
:1003400043F8042B294A9342F9D3254B1B6813B970
:10035000244B1B6803B1FEE700F0A6F8694601A82C
:1003600001F0B4FF224C234BE41AA410002504E052
:10037000204B53F8253098470135AC42F8DC1E4C31
:100380001E4BE41AA410002504E01C4B53F8253042
:1003900098470135AC42F8DC0099019801F05CF80F
:1003A0000546174C174BE41AA41004E0013C154B0A
:1003B00053F824309847002CF8DC284601F022FF3F
:1003C000BABADECA000000202C0100200000002084
:1003D000347B00083001002078563412325476986D
:1003E00030010020505500203001002054550020DD
:1003F000300400083004000830040008300400080D
:0804000030040008300400087C
:10040800347B00080000002030010020347B000805
:10041800000000100000001030010020545500209A
:080428000000001000000010AC
:1004300000231F2B04DC0B4A0021D1540133F8E7C1
:10044000002304E00133074AFF2102F82310062BA2
:10045000F8DD2023202B00DD7047024AFF21D15414
:100460000133F7E71803002070B50023062B0FDCDB
:100470009A00551D03EB430101440E79084C665563
:10048000951DCE78665507328978A1540133EDE782
:100490004FF0FF3321220249024803F013FE70BDE2
:1004A000180300200400002008B502F0B9F800F09D
:1004B0007FFF01F079FA08BD014BB3F900007047E6
:1004C0003401002008B5FFF7F7FF80B20C4B1B8802
:1004D000C01A80B203B2002B0DDBB433094880FB95
:1004E0000320C218D817C0EB22204FF4B47202FBCD
:1004F000103000B208BD00F5B4731BB2EDE700BFC9
:1005000036010020B7600BB6034B1888B0F5C87FE2
:1005100094BF002001207047C00300202DE9F04760
:1005200004460F4690469946089E02F09BF8054601
:1005300023681A6812F4007F08D005EB060A02F05F
:1005400091F88245F4D20120BDE8F0871A6842F4A0
:1005500080721A6023685A6912F0010F07D105EB07
:10056000060A02F07FF88245F4D20220ECE71F6110
:1005700023685A6912F0020F06D1AF1902F072F81F
:100580008742F5D20320DFE79A69C3F81080236819
:100590005A6912F0800F06D1AF1902F063F8874252
:1005A000F5D20420D0E7C3F8109023685A6912F0FE
:1005B000800F06D1AF1902F055F88742F5D2052019
:1005C000C2E71A6842F400721A600020BCE72DE905
:1005D000F0470446884617469946089E02F042F8BE
:1005E000054623681A6812F4007F08D005EB060A56
:1005F00002F038F88245F4D20120BDE8F0871A688D
:1006000042F480721A6023685A6912F0010F07D110
:1006100005EB060A02F026F88245F4D20220ECE748
:10062000C3F8108023685A6912F0020F07D105EB56
:10063000060A02F017F88245F4D20320DDE79A6932
:1006400047F080071F6123685A6912F0800F06D1B6
:10065000AF1902F007F88742F5D20420CDE71A68F7
:1006600042F480721A602268536913F0010F06D1B8
:10067000AF1901F0F7FF8742F5D20520BDE748F03A
:100680000103136123685A6912F0020F06D1AF19F2
:1006900001F0E8FF8742F5D20620AEE71A6842F47F
:1006A00000621A6072B623689A691A6822F480623E
:1006B0001A6062B623685B6913F0040F06D1AF19A4
:1006C00001F0D0FF8742F5D2072096E772B6226884
:1006D000136843F4007313602368D3F8108062B684
:1006E00023681F6923681A6812F4007F07D105EB9D
:1006F000060A01F0B7FF8245F4D208207DE71A68A8
:1007000022F400621A602268136843F48063136065
:100710003B0223F07F4323F0FF0343EA0803A9F8D9
:100720000030002069E7000070B586B04D4B1A68B4
:10073000136823F00103136011230293042305932C
:1007400001240394022304934FF400760196464D4E
:1007500001A9284602F0C2FC22463146284602F092
:1007600043FE4FF480760196A5F5006501A9284661
:1007700002F0B4FC22463146284602F035FE4FF422
:100780000071394802F01CFE012802D000BFF6E7D4
:1007900000BF4FF48071354802F012FE0128F7D1F6
:1007A00000224FF40071304802F01EFE4FF4007139
:1007B0002D4802F005FE08B100BFF7E700224FF414
:1007C00080712A4802F010FE4FF48071274802F031
:1007D000F7FD08B100BFF7E701224FF4807123480D
:1007E00002F002FE4FF48071204802F0E9FD01287A
:1007F00001D000BFF6E701224FF400711A4802F061
:10080000F3FD4FF40071184802F0DAFD012801D021
:1008100000BFF6E712230293042305934FF480737D
:10082000019301A9114802F059FC4FF400730193A0
:1008300001A90D4802F052FC0A480268136843F40B
:100840000043136000BF0268136823F40043136081
:1008500000BF0268136843F00103136002F0E2FD79
:1008600006B070BD400300200008024000000240B6
:1008700030B589B000230293244A116C41F4000181
:100880001164126C02F400020292029A0393049320
:100890000593069307931E4C1E4A22601E4A62600F
:1008A000A360E3604FF4804222616361A361E3616E
:1008B0002362204602F0B6FD4FF400730393122327
:1008C000049301230593032306930423079303A9A9
:1008D000124802F003FC4FF48073039303A91048FD
:1008E00002F0FCFBFFF720FF4FF47A7500952E23F2
:1008F000202230212046FFF711FE009530232322CD
:1009000019462046FFF70AFE09B030BD0038024004
:1009100040030020005C0040801A060000080240EE
:100920000000024070B582B001F09CFE434B1B6892
:10093000C01A0A285BD901F095FE404B18600A23C3
:1009400000933F4B2C2230213E48FFF740FE0446E7
:100950000123002B3CDC01F06FF83B4B1860002CAE
:100960003ED1374B1888B0F5C87F65D3374C238804
:100970006380E13805F02AF90022354B05F0BAFA18
:1009800004F046FC02460B460020324905F0B2FA5C
:1009900005F05EFC80B220802B4A136852689B1AD7
:1009A000B3FBF0F06288B3FBF2F318442A4A1388D1
:1009B00003EB5000C3082949A1FB03139B084FF424
:1009C000B47101FB13039BB21380254A138033E0FB
:1009D0005A1E1D4951F8220041F823001346B8E77A
:1009E000FFF7A2FE154A13680A3B136024E001F0EA
:1009F00023F8164C6388144D6968461A2488E21A55
:100A000002FB06F22D68691AB2FBF1F21344401B97
:100A1000B0FBF3F3B0FBF4F003440F4A128802EB8F
:100A20005303DA080D49A1FB021292084FF4B47186
:100A300001FB12320A4B1A8002B070BD3C0100204B
:100A4000C003002040030020C403002094030020C2
:100A50000050804000B886403C030020176CC1164F
:100A60003401002010B5FFF75DFFFFF74DFD00B921
:100A700010BD00F059F840F2DB53984213D900F052
:100A8000DBFF1E4B1B68C01A1D4B9842F0D900F0CB
:100A9000D3FF1A4B18601B4B1A881B4B1A801B4B39
:100AA00000221A80E4E71223002B07DB591C184AA6
:100AB00032F8134022F81140013BF5E7144B18803F
:100AC00000231A4604E0124931F813100A44013396
:100AD000132BF8DD0F4BA3FB02131B090B490988ED
:100AE0009942CCD240F2E3718A42C8D9074A1380B6
:100AF000FFF7E2FC034B1880C1E700BF4001002074
:100B0000A086010038010020360100203A010020B3
:100B100098030020CDCCCCCC08B5024801F04CFFA6
:100B200008BD00BF5C000020014BD86C80B270474C
:100B30000020014010B504461C2005F0A7FC00224F
:100B4000062A08DC02EB4203034400219970D970A5
:100B500019710132F4E704800023836110BDF8B5F8
:100B600004460F4616461D461C2005F08FFC002348
:100B700007E003EB4302024400219170D170117130
:100B80000133062B0BDC44FA03F212F0010FF0D014
:100B900003EB430202449770D6701571F0E7BDF87D
:100BA0001830038000238361F8BD10B50446084661
:100BB000FFF7C0FFA06110BD10B582B00446084623
:100BC00011461A46BDF8143000939DF81030FFF717
:100BD000C6FFA06102B010BD08B5831E042B04D867
:100BE000DFE803F0080F14191E00154B1A68154BA7
:100BF0001A6003E0144B1A68124B1A60062814D1CD
:100C000008BD124B1A680F4B1A60F7E7104B1A68B1
:100C10000C4B1A60F2E70F4B1A680A4B1A60EDE7AB
:100C20000D4B1A68074B1A60E8E7064B18680B4B28
:100C30001860FFF719FC01F015FD094B1860DFE79C
:100C4000F451002000520020F051002008520020F2
:100C5000F851002004520020FC510020EC510020EB
:100C60004401002008B501F0FDFC0D4B1A68138803
:100C7000C01A0C4B1B6898420BD9936953B1084AB0
:100C8000136001F0EFFC074B1860054B1868FFF785
:100C9000EBFB08BD044B1A68014B1A60F1E700BF7B
:100CA000EC510020440100200052002008B5134BF5
:100CB00083FB00230344C217C2EB23224FF4B47317
:100CC00003FB120212B2002A0BDB0D4B1868002343
:100CD00001880B449BB2934206DC80690028F7D15F
:100CE00008BD1A4412B2F0E7064B1B688342F7D0E6
:100CF000044B1860FFF7B8FBF2E700BFB7600BB614
:100D000000520020EC51002030B583B04FF4FA754A
:100D1000009500231A463F210820FFF720FF144BBF
:100D2000186001950024009423463F221C21FFF700
:100D300043FF0195009423463F223E21FFF73CFFED
:100D40000195009423463F227F21FFF735FF01954F
:100D5000009423463F223E21FFF72EFF0195009489
:100D600023463F221C21FFF727FF03B030BD00BF01
:100D7000F451002030B583B04FF4FA74009400238E
:100D80003F2211460820FFF7EAFE144B1860019439
:100D9000002500953F231A461C21FFF70DFF019403
:100DA00000953F231A463E21FFF706FF0194009568
:100DB0003F231A467F21FFF7FFFE019400953F2352
:100DC0001A463E21FFF7F8FE019400953F231A468C
:100DD0001C21FFF7F1FE03B030BD00BFF051002031
:100DE00030B583B04FF4FA75009500233F221146C9
:100DF0000820FFF7B4FE144B1860019500240094FE
:100E000023463F221C21FFF7D7FE019500943F2384
:100E10001A463E21FFF7D0FE019500943F231A4663
:100E20007F21FFF7C9FE019500943F231A463E211A
:100E3000FFF7C2FE0195009423463F221C21FFF7D5
:100E4000BBFE03B030BD00BF0852002030B583B0F8
:100E50006425009500233F2219460820FFF77FFEF6
:100E6000134B18600195002400943F2322467F21F4
:100E7000FFF7A2FE019500943F2322463E21FFF793
:100E80009BFE019500943F2322461C21FFF794FE10
:100E9000019500943F2322463E21FFF78DFE0195E8
:100EA00000943F2322467F21FFF786FE03B030BD2A
:100EB000F851002030B583B06425009500233F220F
:100EC00019460820FFF74BFE134B186001950024CC
:100ED00000943F2322461C21FFF76EFE01950094EB
:100EE0003F2322463E21FFF767FE019500943F23F2
:100EF00022467F21FFF760FE019500943F232246A2
:100F00003E21FFF759FE019500943F2322461C2104
:100F1000FFF752FE03B030BD0452002070B582B01E
:100F20000524009400231A46FF210820FFF717FE2E
:100F30008C4B18600194002600963346FF22142142
:100F4000FFF73AFE019400963346FF222221FFF775
:100F500033FE019400963346FF224121FFF72CFE19
:100F6000052E1FDC05250195002400942346FF2251
:100F70004121FFF721FE019500942346FF224921DC
:100F8000FFF71AFE019500942346FF225521FFF733
:100F900013FE019500942346FF226321FFF70CFE08
:100FA0000136DDE70521FFF700FE0325019500244A
:100FB0000094FF2322463E21FFF7FEFD0195009499
:100FC000FF2322460821FFF7F7FD01950094FF2338
:100FD00022460821FFF7F0FD01950094FF232246E9
:100FE0000821FFF7E9FD01950094FF2322463E21E9
:100FF000FFF7E2FD2946FFF7D8FD01950094FF2396
:1010000022463C21FFF7D8FD01950094FF2322469C
:101010000A21FFF7D1FD01950094FF2322460A2102
:10102000FFF7CAFD01950094FF2322460A21FFF72E
:10103000C3FD01950094FF2322463C21FFF7BCFD30
:101040002946FFF7B2FD01950094FF2322463C217B
:10105000FFF7B2FD01950094FF2322462021FFF700
:10106000ABFD01950094FF2322462021FFF7A4FD4C
:1010700001950094FF2322462021FFF79DFD019555
:101080000094FF2322462021FFF796FD2946FFF713
:101090008CFD01950094FF2322461C21FFF78CFD57
:1010A00001950094FF2322462221FFF785FD01953B
:1010B0000094FF2322462221FFF77EFD0195009434
:1010C000FF2322462221FFF777FD01950094FF239D
:1010D00022461C21FFF770FD0621FFF766FD052C57
:1010E0001FDC05260196FF25009500231A46632183
:1010F000FFF762FD0196009500231A465521FFF780
:101100005BFD0196009500231A464921FFF754FD27
:101110000196009500231A464121FFF74DFD013449
:10112000DDE705250195FF24009400231A4641219F
:10113000FFF742FD0195009400231A462221FFF794
:101140003BFD0195009400231A461421FFF734FD5E
:101150000195009400231A460821FFF72DFD02B0E7
:1011600070BD00BFFC51002008B5FFF761F9FFF723
:10117000CBFDFFF7FFFDFFF733FEFFF767FEFFF73D
:1011800099FEFFF7CBFE08BDF0B589B000240394AB
:10119000049405940694079400942D4B1A6B42F026
:1011A00001021A631A6B02F001020092009A019484
:1011B0001A6B42F004021A631A6B02F004020192E5
:1011C000019A02941A6B42F002021A631B6B03F03D
:1011D00002030293029B1F4F22464021384602F031
:1011E00003F91D4D22464FF47871284602F0FCF8B1
:1011F0000423039301260496059403A9284601F0CD
:101200006DFF4023039304960594069403A9384682
:1012100001F064FF4FF4C07303930494059403A991
:10122000384601F05BFF4FF4007303930494059478
:1012300003A90A4801F052FF4FF478730393049610
:101240000594069403A9284601F048FF09B0F0BDB3
:101250000038024000080240000402400000024042
:1012600008B5024805F0CAF908BD00BFC0750008FE
:1012700000B585B0002300930193029303931448B3
:10128000144A02604FF4803242608360036101229D
:1012900082610362C36210498162C360C2610363F9
:1012A000436101F093FA60B9012300930193002395
:1012B00002936946064801F019FC28B905B05DF8AB
:1012C00004FBFFF7CDFFEFE7FFF7CAFFF6E700BF2C
:1012D00064530020002001400100000F00B583B0DE
:1012E0000023009301931048104B036001F07CFD34
:1012F00080B900220092019269460B4801F094FDEA
:1013000058B910226946084801F08EFD40B903B073
:101310005DF804FBFFF7A4FFEBE7FFF7A1FFF0E7A1
:10132000FFF79EFFF3E700BFF45300200074004076
:1013300008B50D480D4B03604FF4827343600023E2
:101340008360C360036143614FF400728261C361D3
:101350000362436283620A23C36202F0C5FD00B9DF
:1013600008BDFFF77DFFFBE70C520020003800406E
:1013700008B50D480D4B03604FF4827343600023A2
:101380008360C360036143614FF400728261C36193
:101390000362436283620A23C36202F0A5FD00B9BF
:1013A00008BDFFF75DFFFBE70C530020003C004049
:1013B00000B595B03422002107A805F06FF800238E
:1013C000029303930493059306930093204A116CB0
:1013D00041F080511164126C02F080520092009A28
:1013E00001931C490A6822F4404242F480420A6098
:1013F0000A6802F440420192019A022207920121F6
:101400000A9110210B910D920E930F917823109356
:10141000119204231293139207A802F049F988B994
:101420000F23029302230393002304934FF4A0534A
:1014300005930693032102A802F098FB28B915B082
:101440005DF804FBFFF70CFFEAE7FFF709FFF6E79B
:10145000003802400070004008B501F0E1F8FFF7E5
:10146000A7FFFFF791FEFFF703FFFFF737FFFFF737
:101470005FFFFFF77DFF00F079FBFEE708B50A4646
:101480000146024805F0BAF808BD00BFD075000853
:1014900030B58DB0002209920A920B924448454B18
:1014A0000360009203F59C33596C41F001015964CB
:1014B000596C01F001010091009901921A6B42F4FC
:1014C00080021A631B6B03F480030193019B4FF4AA
:1014D0008053089308A902F021FF002865D1002459
:1014E000059406940294344B1A6B42F001021A637D
:1014F0001B6B03F001030293029B4FF440630393C1
:10150000022304930123079303A92C4801F0E6FD6D
:10151000274D0821284603F03DFA0C21284603F008
:1015200039FA274B1C805C84264B1A68136823F019
:1015300001031B041B0C1360234B1A68136823F070
:1015400001031360204B1B681A6812F0010FF9D1D8
:101550001C48026800215162D16841F40071D160D9
:10156000916941F010019161D16941F4C04141F0AC
:101570006001D161116A41F4885141F001011162A9
:101580001921D16212215163916C41F00F019164D4
:101590000E4A1A600C4B1B68094ADA60026813682D
:1015A00043F0850313600DB030BDFFF759FE96E799
:1015B00008540020000001400038024000000240B2
:1015C00044540020AC000020A8000020402C030C54
:1015D00030B44C00A4B20022134603E06340240957
:1015E0000132D2B2022AF9D903F00F0343EA4113C0
:1015F0001BB29BB2184A15682A6812F0010FF9D184
:10160000002206E013240132144921F812405B0045
:101610009BB20F2A04DC13F4004FF3D10924F2E744
:10162000012806D0022815D10D4B1B684033AB6052
:1016300003E00B4B1B683C33AB600A4B1B680A4A48
:10164000DA609A60044B1B6812225A601A6842F0F2
:1016500001021A6030BC7047A800002044540020EA
:10166000AC000020A40000207D0F7D0F08B5B1F56F
:10167000007F05D8632905D80021FFF7A9FF11E0F5
:101680004FF4007140F2E73303FB01F1C1F34F2146
:10169000B1F57A7F00D31946012A04D0303189B2DE
:1016A000FFF796FF08BD01F2E93189B2F6E708B508
:1016B000002904DD002289B2FFF7D8FF08BD4942A6
:1016C00009B20122F7E7000010B50C480C4B03608B
:1016D0004FF46143436000248460C46004610C23C0
:1016E00043618461C46103F0DDFB2246214625206D
:1016F00001F006FB252001F049FB10BD90540020AD
:101700000010014010B5002414E0144B1B5D7E2B2B
:101710000FD1134B02221A70124B00221A7008E0EC
:1017200000F0A0FF104B18600123104A13700C4A00
:1017300013700134082C0FDC094B1B78012BE4D00B
:10174000084A13780549085D0949C8540133DBB2DA
:101750001370072BEDD9E3E710BD00BF84540020C0
:10176000B0000020480100204C0100208D540020D2
:101770007854002008B5024801F0BEFB08BD00BF48
:10178000D054002008B5024803F0A4FC08BD00BFF7
:101790009054002008B500F065FF064B1B68C01A86
:1017A000B0F57A7F02D21BB9002000E0002008BD0E
:1017B0000120FCE74C010020034B1878AA2814BF35
:1017C00000200120704700BF49010020014B18880C
:1017D000704700BF52010020014B1888704700BFBE
:1017E0008E540020014BB3F9000070477454002060
:1017F000014BB3F90000704754010020014BB3F9CD
:101800000000704756010020024B187800F00100DC
:10181000704700BF50010020024B1878C0F38000D1
:10182000704700BF500100204FF08043834201D930
:101830009B08FBE7002201E052089B0833B1D11856
:101840008142F9D8401A02EB4302F5E7904200D9F1
:101850000132104670470000F8B509222C492D4886
:1018600003F0B2FB2C4B1B7803B9F8BD2A4B0022C6
:101870001A702A4B19782A4A11705A789D7845EACD
:101880000225C5F500752DB2264A1580DA781C7937
:1018900044EA0224A4F5007424B2234A148059793E
:1018A0009A7942EA012221490A80DA79204B1A709A
:1018B00004FB04F005FB0500FFF7B6FFC0F34E0084
:1018C0001C4B1880284604F081F906460F46204636
:1018D00004F07CF932463B4603F098FC0022164B9C
:1018E00004F0DEF908A3D3E9002304F003FB04F0BD
:1018F00087FC00B2114B18800028B6DA00F5B470EE
:101900001880B2E7AFF30080182D4454FB21094042
:1019100084540020905400208D54002078540020DE
:1019200050010020540100205601002052010020E7
:10193000490100208E54002000806640745400202D
:1019400070477047FEE7FEE7FEE770477047704755
:1019500008B500F07FFE08BD08B5024801F0CCFADA
:1019600008BD00BFAC5200200C4B1A6842F00102C7
:101970001A60002199601A6822F0847222F4803281
:101980001A60074A5A601A6822F480221A60D960E5
:10199000044B4FF000629A60704700BF003802406D
:1019A0001030002400ED00E01F4B9B6803F00C0397
:1019B000042B14D0082B16D01BB11C4B1C4A1A60E8
:1019C00002E01A4B1A4A1A60174B9B68C3F30313C1
:1019D000184AD15C154A1368CB4013607047134B0B
:1019E00000221A60F0E7104B5A685B6803F03F036F
:1019F00012F4800F0DD00C4B5B6800220A4B5B6821
:101A0000C3F3014301335B00B2FBF3F3074A1360F6
:101A1000DAE7074AB2FBF3F2034B5B68C3F38813C0
:101A200003FB02F2EAE700BF00380240B4000020E6
:101A30000024F40000760008044B1B685B6A044A2B
:101A40001268506A03EA0040704700BFBC000020E3
:101A5000B8000020054B1A6800235362044A12683C
:101A60005362044A12685362704700BFBC000020F2
:101A7000B8000020C000002070B584B0002301939E
:101A8000234A116C41F002011164116C01F0020152
:101A9000019101990293116C41F004011164116CE0
:101AA00001F00401029102991A49086803601A487A
:101AB000046823600D681D24AC6204680726A660D4
:101AC0006B6263620393146C44F010041464126C30
:101AD00002F010020392039A104A146823601468FB
:101AE00047F22F55A5626362012323600C682360CF
:101AF000006803601268536943F0010353610A6888
:101B0000536943F001035361FFF7A4FF04B070BDB4
:101B100000380240BC000020B8000020C0000020B7
:101B200008B5831E042B04D8DFE803F0060D10135C
:101B300016000D4B187001E00B4B18700A4B1B7808
:101B400083420CD008BD084B1870F7E7064B18709D
:101B5000F4E7054B1870F1E7034B1870EEE71846F1
:101B6000FFF73AF8EEE700BF6401002038B5FFF751
:101B700083FFFFF7F9FA0120FFF72EF8FEF7CCFFFD
:101B8000FFF7A2FD00F076F9FFF782FCFEF770FE8A
:101B900012E00120FFF7C4FF1DE0FFF73DFEF0B9A2
:101BA000AE4B00221A701AE0FFF7F4FD60BBAC4B9D
:101BB0001B78062B40F04E8100F06CF9FFF73CFFDC
:101BC000A84B1860FFF748FEFFF7E4FD18B9A44BD7
:101BD0001B78012BDDD1A14B1B78002BDDD1A04B55
:101BE0001B78013B052B00F2318101A252F823F052
:101BF000A91B0008111C00086D1C0008D11C00085E
:101C0000171D0008811D00080220FFF789FFCEE79D
:101C1000FFF7D2FDB8B9FFF7FFFD10B18F4B1B786E
:101C2000EBB1904B1A68904B1B68D31A632BBED94B
:101C30008D4B1A6000210120FFF739FD00210220A1
:101C4000FFF735FDB3E7FFF7C1FD0A2803D90620EA
:101C5000FFF766FFDFE70520FFF762FFDBE77F4B5B
:101C600001221A700320FFF75BFFDAE7FFF7A4FDFC
:101C7000B8B9FFF7D1FD10B1784B1B780BB3794B96
:101C80001A68794B1B68D31A632B90D9764B1A606C
:101C900000210120FFF70BFD00210220FFF707FDC7
:101CA00085E7FFF793FD0A2807D9FFF7C5FE6F4BBD
:101CB00018600420FFF734FFDBE70520FFF730FF53
:101CC000D7E7664B01221A700220FFF729FFD6E7FB
:101CD000FFF7B2FE654B1B68C01A654B984216D8D9
:101CE000604B1A68604B1B68D31A632B7FF65FAF9B
:101CF0005D4B1A6000224FF4C8710120FFF7B6FC5B
:101D000001224FF4C8710220FFF7B0FC4FE7062014
:101D1000FFF706FFE4E7FFF74FFD48B3FFF756FD77
:101D20000A2829D84F4B1A684F4B1B68D31A632BCC
:101D30007FF63DAF4C4B1A60FFF760FD0446FFF79E
:101D400057FD80B204EBD474C0EB640421B20120CF
:101D5000FFF7ADFCFFF74CFD84B2FFF74FFD00EB42
:101D6000D07004EB600109B20220FFF7A0FC1EE76F
:101D70000220FFF7D5FED1E70620FFF7D1FE1BE7D3
:101D8000FFF71AFD002840D0FFF720FD0A2840D9B0
:101D9000FEF768FEFEF796FB0446FEF787FF314B21
:101DA0001A68314B1B68D31A632B7FF600AF2E4B9A
:101DB0001A60FFF70BFDC0F34F05FFF725FD60B379
:101DC0004FF6FF7315FB03F5ADB2FFF705FD0A28CB
:101DD00032D9FFF707FD031B002BB8BF5B42B43BB2
:101DE000002BB8BF5B42C3F1B4031BB2592B16DC06
:101DF000A5F1280109B20120FFF759FC05F12801DE
:101E000009B20220FFF753FCD1E60220FFF788FE5B
:101E1000BAE70520FFF784FECEE60123D2E705F1FD
:101E2000280109B20120FFF742FCA5F1280109B2FF
:101E30000220FFF73CFCBAE62DB229460120FFF74D
:101E400036FC29460220FFF732FCB0E60120FFF7FE
:101E500067FEACE6FEF706FFAEE600BF65010020B8
:101E600064010020600100205C0100205801002076
:101E700020A1070008B50548054B03600323436014
:101E80004FF4FA73836001F0C9FB08BD30550020A0
:101E90000030004008B5024801F004FC08BD00BF56
:101EA0003055002008B5FFF75FFD024A024B9A60EB
:101EB00008BD00BF0000000800ED00E0F8B50446D2
:101EC0000D4617461E46274800F0F2F821682648BE
:101ED00000F0EEF86168254800F0EAF8A1682448AF
:101EE00000F0E6F8E168234800F0E2F821692248B2
:101EF00000F0DEF86169214800F0DAF8A1692048B5
:101F000000F0D6F8E1691F4800F0D2F81E4800F052
:101F1000CFF829461D4800F0CBF81D4CE16A1D485A
:101F200000F0C6F8216B1C4800F0C2F8E16B1B48BA
:101F300000F0BEF815F0800F0AD115F4004F0CD157
:101F4000174800F0B5F80699164800F0B1F8F8BD4A
:101F50003946154800F0ACF8EFE73146134800F079
:101F6000A7F8EDE710760008207600083076000824
:101F70004076000850760008607600087076000809
:101F80008076000890760008A0760008AC760008FD
:101F900000ED00E0BC760008CC760008DC76000896
:101FA0000C77000814770008EC760008FC7600082F
:101FB00038B583691B888B4201D0002038BD0446A8
:101FC00003684568013B302B69D8DFE803F0462100
:101FD0001C1C5E30332D1919681919191919361975
:101FE0002468192768396868686868686868686874
:101FF0006868686868686868686868686819190067
:102000004FF0FF330360A3690233A3610120D5E7DA
:1020100000230360F7E700230360F4E700232B604D
:102020006B60AB60EB60EEE700230360EBE7AB684F
:102030000360E8E700230360E5E700230360E2E7CD
:10204000BFF34F8F1749CA6802F4E062164B13437F
:10205000CB60BFF34F8F00BFFDE71449286804F041
:1020600038FB40B96B6813B901232360CBE7042B1D
:1020700005D0082B06D04FF0FF332360C3E70223BF
:102080002360C0E703232360BDE72B68023B012BDD
:1020900002D9AB680360B6E700230360B3E7002012
:1020A0008CE700BF00ED00E00400FA052C77000883
:1020B0000FB400B583B004AB53F8042B0193802117
:1020C000074804F03DFB002804DC03B05DF804EB96
:1020D00004B070470146024800F034F8F5E700BF4D
:1020E000680100202DE9F04385B004460F464356B1
:1020F00033BB042528462146ABBE0446384605B00E
:10210000BDE8F08304AA1344002203F8102C4FF01A
:102110000408E94640464946ABBE8046761B002E81
:10212000ECD03546102E28BF10250023AB42E9D253
:1021300014F9011B04AA1A4402F8101C0133F5E734
:102140000E46ECE708B5FFF7CDFF08BD08B503461E
:102150000C4A12685AB10B4A1068033323F0030388
:102160000344094A934206D8064A136008BD054A4B
:1021700006491160EFE704F08BF80C2303604FF081
:10218000FF30F3E7E801002000FC01205455002057
:1021900030B51324002520462946ABBE0446204610
:1021A00030BD38B5044604F073F80546FFF7F0FF7C
:1021B0002860204638BDB0F1FF3F00D0704708B519
:1021C000FFF7EFFF08BD000010B504460B4B186881
:1021D00008B1836B5BB1132C0CD8094B53F8343026
:1021E000B3F1FF3F08D0064800EBC40010BD04F077
:1021F000ADF8F0E70020F9E70020F7E7C80000207D
:102200007002002000B530B9044D1824204629463C
:10221000ABBE0446FEE7024DF7E700BF2600020012
:10222000230002002DE9F04184B0234F01970326DB
:10223000039600230293012401AD20462946ABBE3C
:1022400080461E4BC3F80080019703960423029337
:1022500020462946ABBE8046194BC3F80080019743
:1022600003960823029320462946ABBE0446154B2D
:102270001C60B4F1FF3F01D000230AE0104B1A6844
:10228000104B1A60F8E7104A4FF0FF3142F8331054
:102290000133132BF7DD0C4B084A12681A60002239
:1022A0005A60074909689960DA6006490968196146
:1022B0005A6104B0BDE8F0812C7700086802002064
:1022C0006C0200206402002070020020F0B583B090
:1022D00007460E46294B00934F23019315256C4664
:1022E00028462146ABBE0546B5BBAC46234B002273
:1022F00083F84F20009A2C462846294607E00132F1
:102300001C461F4B43F8212001310120013292F974
:102310000030FBB160B91B4D5D57002DF6DB092B7A
:10232000F4D0082916DC222BE9D0272BE9D1E6E7E7
:1023300034B19C42EAD10023137064466046E5E75D
:10234000104D5D57002D01DB092BDFD100231370E9
:102350002046DBE739B900E00021084B00221A7063
:10236000074A13600131064B002243F821203960EF
:102370003360FFF757FF03B0F0BD00BFEC01002052
:102380003C0200209979000830B585B00190029197
:102390000392062401AD20462946ABBE04462046E2
:1023A000FFF709FF05B030BD70B50E461546FFF7C3
:1023B0000BFF68B104462A4631460068FFF7E4FF88
:1023C000B0F1FF3F03D0281A63680344636070BD17
:1023D00003F05EFF092303604FF0FF30F7E7F0B52D
:1023E00083B00C461546FFF7EFFEC0B10646022D3E
:1023F0001CD8012D21D0022D33D0336800930194D5
:102400000A256F4628463946ABBE05462846FFF7E3
:10241000D2FE002835DB7460204603B0F0BD03F027
:1024200037FF092303604FF0FF30F6E703F030FF7A
:10243000162303604FF0FF30EFE74368E418DCD564
:1024400003F026FF162303607368002B01DD002CC8
:1024500002DC4FF0FF30E0E703F01AFF8B2303604C
:10246000F7E7036800930C256F4628463946ABBE54
:1024700005462846FFF79FFEB0F1FF3FCDD004444C
:10248000BBE74FF0FF30C8E708B5FFF7A8FF08BD6E
:1024900030B585B0019002910392052401AD20462C
:1024A0002946ABBE04462046FFF785FE05B030BD89
:1024B00070B50E461446FFF787FE70B105462246FA
:1024C00031460068FFF7E4FF021E11DBA01A6B68BB
:1024D00003446B60944207D070BD03F0D9FE09231A
:1024E00003604FF0FF30F7E70020FFF75AFEF3E7F5
:1024F0004FF0FF30F0E730B583B00190022401AD1A
:1025000020462946ABBE04462046FFF754FE03B0E2
:1025100030BD000038B50446FFF756FE90B10546C1
:10252000013C012C04D80D4B9A681B699A4210D0CB
:102530002868FFF7E0FF034610B94FF0FF322A602A
:10254000184638BD03F0A4FE092303604FF0FF33A3
:10255000F6E74FF0FF3303600023F1E7700200203D
:1025600070B50C46FFF730FEA8B10646636843F429
:10257000005363604FF4806363640C252846314642
:10258000ABBE05462846FFF716FEB0F1FF3F01D06F
:102590002061002070BD03F07BFE092303604FF033
:1025A000FF30F7E738B505460C4658220021204693
:1025B00003F074FF21462846FFF7D2FF38BD38B537
:1025C000FFF702FE80B10546092420462946ABBE2E
:1025D00004462046012C06D003F05AFE0446FFF7BD
:1025E000D7FD2060002038BD03F052FE09230360B0
:1025F0000020F8E710B50446074B1868074BA3FB0B
:102600000030800900F0D8FB002221464FF0FF3057
:1026100000F076FB002010BDB4000020D34D621006
:1026200008B50B4B1A6842F400721A601A6842F43B
:1026300080621A601A6842F480721A60032000F007
:1026400041FB0F20FFF7D6FFFFF77AF9002008BD06
:10265000003C0240024A136801331360704700BF18
:1026600040550020014B1868704700BF40550020BE
:1026700010B50446514B5A6822F440325A605A68E9
:1026800041680A435A600268536823F480735360B8
:1026900002685368016943EA012353600268536882
:1026A00023F0407353600268536881680B435360A2
:1026B0000268936823F40063936002689368C168BA
:1026C0000B439360826A3E4B9A425FD002689368E4
:1026D00023F07063936002689368816A0B43936090
:1026E0000268936823F04053936002689368C16A5C
:1026F0000B4393602268936823F00203936022687F
:102700009368A16943EA41039360236A002B4ED08A
:10271000636A013B072B44D82268536843F4006383
:1027200053602268536823F460435360636A013B3B
:102730004FF4604292FAA2F2B2FA82F29340216818
:102740004A6813434B602268D36A23F47003D36250
:102750002168CB6AE269013A43EA0253CB622268FC
:10276000936823F40073936022689368216B43EAB3
:10277000412393602268936823F480639360226806
:102780009368616943EA8123936010BD026893688E
:1027900023F0706393600268936823F04053936062
:1027A000A8E740F20A610748FEF768FEB4E722682E
:1027B000536823F400635360C5E700BF0023014062
:1027C0000100000F5C77000870470000002800F04F
:1027D000EB8010B504460368744A93420CD002F5AE
:1027E0008072934208D002F58072934204D040F286
:1027F0000D116F48FEF742FE636843B1B3F5803FA9
:1028000005D0B3F5003F02D0B3F5403F6FD1A368C8
:1028100043B1B3F1807F05D0B3F1007F02D0B3F1B3
:10282000407F6AD12369012B6DD8A369012B70D831
:10283000A36A7BB3B3F1807F2CD0B3F1007F29D0A2
:10284000B3F1407F26D0B3F1806F23D0B3F1A06FF6
:1028500020D0B3F1C06F1DD0B3F1E06F1AD0B3F147
:10286000006F17D0B3F1106F14D0B3F1206F11D0F7
:10287000B3F1306F0ED0B3F1406F0BD0B3F1506FA6
:1028800008D0B3F1606F05D0B3F1706F02D0494A40
:10289000934244D1E36813B1B3F5006F45D1E369C6
:1028A000013B0F2B47D8236B012B4AD86369022BBE
:1028B0004DD8236A012B50D8A26A3E4B9A420AD0C7
:1028C000E36A43B1B3F1805F05D0B3F1005F02D09A
:1028D000B3F1405F47D1236C002B4AD0236C13F037
:1028E000100F4DD00120002384F83C3010BD4FF470
:1028F00087712F48FEF7C2FD89E740F20F112C487F
:10290000FEF7BCFD8EE74FF488712948FEF7B6FD4F
:102910008BE740F211112648FEF7B0FD88E74FF42F
:1029200089712348FEF7AAFDB4E740F2131120484D
:10293000FEF7A4FDB3E74FF48A711D48FEF79EFD34
:10294000B1E740F215111A48FEF798FDAEE74FF4D3
:102950008B711748FEF792FDABE740F21711144850
:10296000FEF78CFDA8E740F21B111148FEF786FD2B
:10297000B1E7636484F83C302046FFF725FFADE7FC
:10298000236C23F4885323F0020343F002032364EF
:102990002046FFF76DFE00206064236C23F00303E4
:1029A00043F0010323649EE70120704700200140AB
:1029B0005C7700080100000F10B582B004460023C8
:1029C00001938369012B29D8E36A43B1B3F1805F96
:1029D00005D0B3F1005F02D0B3F1405F24D194F889
:1029E0003C30012B6FD0012384F83C3023689A6877
:1029F00012F0010F1ED19A6842F001029A60364B24
:102A00001B68364AA2FB03239B0C03EB4303019391
:102A1000019B7BB1019B013B0193F9E74FF4DD7111
:102A20002F48FEF72BFDCFE740F2BB112C48FEF7F5
:102A300025FDD4E72268936813F0010F45D0236C7D
:102A400023F4E06323F0010343F4807323645368A9
:102A500013F4806F05D0236C23F4405343F4805368
:102A60002364236C13F4805F1AD0636C23F0060395
:102A70006364002384F83C3023686FF022021A60FC
:102A8000184B5B6813F01F0F0DD123689A6812F082
:102A9000405F1DD19A6842F080429A60002015E0A4
:102AA00000236364E5E723680F4A934201D00020C6
:102AB0000CE09A6812F0405F0CD19A6842F08042B4
:102AC0009A60002002E0022000E0002002B010BD69
:102AD0000020FBE70020F9E7B400002083DE1B4361
:102AE0005C770008002301400020014030B583B02E
:102AF00005460C46002301930B68122B02D96B4A42
:102B000093424ED16368013B0F2B50D8A368072B2B
:102B100053D895F83C30012B00F0C580012385F88F
:102B20003C302368092B4ED92868C2689BB203EB5E
:102B300043031E3B072101FA03F322EA0303C360A8
:102B40002868C268A168238803EB43031E3B01FA8F
:102B500003F31343C3606368062B4AD82868426BAB
:102B600003EB8303053B1F2101FA03F322EA03036E
:102B700043632868426B636803EB8303053B21884A
:102B800001FA03F3134343632A68494B9A4260D026
:102B90002A68474B9A4265D0002085F83C0003B074
:102BA00030BD40F204514348FEF768FCAAE740F20A
:102BB00005514048FEF762FCA8E740F206513D4847
:102BC000FEF75CFCA5E7286802699BB203EB4303B0
:102BD000072101FA03F322EA03030361286802696B
:102BE000A168238803EB430301FA03F31343036152
:102BF000B1E70C2B16D82868026B03EB8303233B49
:102C00001F2101FA03F322EA030303632868026B1E
:102C1000636803EB8303233B218801FA03F3134327
:102C20000363B1E72868C26A03EB8303413B1F21BA
:102C300001FA03F322EA0303C3622868C26A6368E5
:102C400003EB8303413B218801FA03F31343C3627F
:102C50009AE72368122B9BD1174A536843F48003E9
:102C6000536095E72368114A934201D0112B93D109
:102C7000114A536843F40003536022680B4B9A4295
:102C80008AD10E4B1B680E4AA2FB03239B0C03EB5D
:102C900083035A000192019B002B3FF47DAF019BFF
:102CA000013B0193F7E7022079E700BF1200001013
:102CB000002001405C77000800230140B4000020A0
:102CC00083DE1B4310B50446C31E042B0FD80A4AEB
:102CD000D36823F4E0631B041B0C240204F4E064B7
:102CE000234343F0BF6343F40033D36010BDA421FA
:102CF0000248FEF7C3FBEAE700ED00E08C7700082E
:102D000070B505460C4616460F2A0FD80F2C12D860
:102D10001B4BDB68C3F30223C3F10702042A28BF5D
:102D20000422191D06290BD9033B0AE0BC211548D2
:102D3000FEF7A4FBEAE7BD211248FEF79FFBE7E799
:102D400000234FF0FF3101FA02F224EA02049C4012
:102D500001FA03F326EA03063443002D08DB2401BD
:102D6000E4B205F1604505F5614585F8004370BDA5
:102D700005F00F052401E4B2034B5C55F7E700BFF3
:102D800000ED00E08C77000814ED00E010B5041EA3
:102D900008DB04F01F02640901239340044A42F84F
:102DA000243010BDD0210348FEF768FBF1E700BFD7
:102DB00000E100E08C7700080138B0F1807F0AD292
:102DC000064B5860064AF02182F8231000209860D4
:102DD00007221A6070470120704700BF10E000E032
:102DE00000ED00E070470000B8B110B5044602687D
:102DF0000B4B9A4203D0F0210A48FEF73FFB2379A0
:102E000033B102232371002020610123237110BDFF
:102E100063712046FFF7E6FFF3E70120704700BF2C
:102E200000740040C077000870B504460E46154691
:102E30000B687BB1242B0DD00C2B0BD0142B09D09D
:102E40001C2B07D0042B05D02C2B03D0342B01D006
:102E50003C2B26D173680BB1022B28D10DB1102D5C
:102E60002BD16379012B2ED00121617102232371B3
:102E70002068036840F6FE72AA4023EA0202336823
:102E800076683343AB401343036020680368C02275
:102E900002FA05F523EA050505602171002060713D
:102EA00070BD40F20A310948FEF7E8FAD2E740F275
:102EB0000B310648FEF7E2FAD0E74FF443710348BE
:102EC000FEF7DCFACDE70220EAE700BFC077000892
:102ED00090F83530DBB2022B03D08023436501200C
:102EE0007047052380F835300268136823F001032A
:102EF0001360002070470000F0B583B00446002343
:102F00000193724B1D68724BA3FB0535AD0A876DAB
:102F10003E68C26D08239340334210D003681A689C
:102F200012F0040F0BD01A6822F004021A60C26D6E
:102F300008239340BB60436D43F001034365E26D9A
:102F4000644B9340334209D02268526912F0800FDB
:102F500004D0BB60636D43F002036365E26D5E4BBA
:102F60009340334209D02268126812F0020F04D055
:102F7000BB60636D43F004036365E26D102393400F
:102F8000334224D02268126812F0080F1FD0BB60B1
:102F900023681A6812F4802F0DD01B6813F4002FD9
:102FA00004D1236C9BB12046984710E0A36C73B109
:102FB000204698470BE01A6812F4807F03D11A6804
:102FC00022F008021A60236C0BB120469847E26D8C
:102FD00020239340334255D02268126812F0100F1C
:102FE00050D0BB6094F83530DBB2052B0ED023688F
:102FF0001A6812F4802F33D01B6813F4002F2AD1E3
:10300000636C002B3ED0204698473BE02268136853
:1030100023F0160313602268536923F08003536181
:10302000236CA3B12268136823F008031360E26DD8
:103030003F239340BB60002384F83430012384F89D
:103040003530236D002B3FD0204698473CE0A36CE1
:10305000002BE7D1EBE7E36BA3B12046984711E0E3
:103060001A6812F4807F09D11A6822F010021A60DF
:10307000002384F83430012384F83530E36B0BB13E
:1030800020469847636DFBB1636D13F0010F17D0B5
:10309000052384F835302268136823F00103136098
:1030A000019B01330193AB4204D823681B6813F0E2
:1030B000010FF5D1002384F83430012384F8353032
:1030C000E36C0BB12046984703B0F0BDB40000207C
:1030D000B5814E1B01008000040080002DE9F047FF
:1030E00082B080460E46B04B98421FD003F58063F5
:1030F00098421BD003F58063984217D003F5806394
:10310000984213D003F5806398420FD003F5806393
:1031100098420BD003F58063984207D003F5806393
:10312000984203D0C521A148FEF7A8F9338833B3EC
:103130007368012B1ED9112B1CD0022B1AD0122B15
:1031400018D09B4A934215D002F58012934211D0B9
:1031500002F5801293420DD0A2F5F812934209D0E5
:1031600002F58012934205D002F58012934201D0FD
:10317000032B09D1B368022B0BD800244FE0C621E2
:103180008A48FEF77BF9D3E7C7218848FEF776F92E
:10319000F0E7C8218548FEF771F9EEE7D9218348A9
:1031A000FEF76CF967E0EC218048FEF767F992E0E2
:1031B000062300E000238B40034302327D4941F89F
:1031C00022307D4B1A68FB4303EA0201706810F459
:1031D000803F01D047EA0201774A1160526803EA52
:1031E0000201706810F4003F01D047EA0201724A00
:1031F0005160926803EA0201706810F4801F01D0E8
:1032000047EA02016C4A9160D2681340716811F478
:10321000001F01D047EA0203674AD36001340F2C34
:1032200000F2BF800125A54037682F40BD42F5D18F
:103230007368022B01D0122B2DD13369DBB1092B1E
:1032400019D0012B17D0022B15D0032B13D0042B30
:1032500011D0052B0FD0062B0DD0072B0BD0082B30
:1032600009D00A2B07D00B2B05D00C2B03D00D2B2C
:1032700001D00F2B92D1E208083258F8220004F056
:10328000070399000F238B4020EA030033698B402A
:10329000034348F82230D8F800204FEA440A4FF0A0
:1032A000030909FA0AF96FEA090909EA02027368CF
:1032B00003F0030303FA0AF31343C8F800307368FA
:1032C0005A1E012A03D9112B01D0122B18D1F368F1
:1032D000032B3FF668AFD8F8082009EA0202F3682A
:1032E00003FA0AF31343C8F80830D8F8042022EA96
:1032F00005027368C3F30015A5401543C8F80450D0
:10330000D8F80C3009EA0309B36803FA0AF343EA70
:103310000903C8F80C30736813F0805F3FF47EAF88
:1033200000230193254B5A6C42F480425A645B6C33
:1033300003F480430193019BA208911C1D4B53F899
:10334000210004F0030399000F238B4020EA0300BF
:10335000154B98453FF42EAF03F58063984516D082
:1033600003F58063984514D003F58063984512D027
:1033700003F58063984510D003F5806398450ED01F
:1033800003F5806398453FF413AF082313E7012347
:1033900011E702230FE703230DE704230BE70523BF
:1033A00009E702B0BDE8F08700000240F0770008AE
:1033B0000000111000380140003C0140003802407C
:1033C00038B505460C4621B12B691C4207D00120B7
:1033D00038BD4FF4C8710348FEF750F8F4E70020F9
:1033E000F6E700BFF077000870B5064615460C46B4
:1033F00021B1012D08D86DB1B46170BD40F2B11199
:103400000648FEF73BF8F4E74FF4D9710348FEF79E
:1034100035F8F0E72404B461EFE700BFF077000867
:1034200070470000002800F0EB8010B504460368E8
:10343000744A93420CD002F58062934208D002F5A0
:103440008062934204D040F265116F48FEF716F88F
:103450006368013B6D4A934267D8A36813B1B3F523
:10346000804F68D1E36823F47F7323F00303002BBC
:1034700067D12369B3F5804F02D0B3F5404F66D1D1
:103480006369012B69D8A36933F0FE036BD1E3694B
:103490000BB1402B6DD1236A0BB1802B6FD194F807
:1034A0003D30002B71D0242384F83D30226813680E
:1034B00023F00103136000F08BFC554BA3FB0023AA
:1034C0009B0C226853606168524A914263D8013371
:1034D0002268136263684F4A934266D85B00B0FB70
:1034E000F3F040F6FC73184200D104202368D86141
:1034F000E369216A22680B4313602369E16822684B
:103500000B4393606369A16922680B43D36022680F
:10351000136843F00103136000202064202384F823
:103520003D30206384F83E0010BD4FF4B37136483F
:10353000FDF7A4FF91E740F267113348FDF79EFFC6
:1035400090E74FF4B4713048FDF798FF91E740F2EF
:1035500069112D48FDF792FF92E74FF4B5712A48A3
:10356000FDF78CFF8FE740F26B112748FDF786FFD0
:103570008DE74FF4B6712448FDF780FF8BE740F2EA
:103580006D112148FDF77AFF89E784F83C30204629
:10359000FFF746FF87E74FF4967202FB03F31E4ADC
:1035A000A2FB03239B09013392E7A16889B903EBCE
:1035B0004302B0FBF2F2C2F30B02B2FA82F25209FA
:1035C000E2B991B903EB4303B0FBF3F040F40040E0
:1035D0008CE703EB830202EB8202B0FBF2F2C2F350
:1035E0000B02B2FA82F25209EAE703EB830303EB20
:1035F0008303B0FBF3F040F4404077E7012075E728
:103600000120704700540040207800087F1A06000F
:1036100083DE1B43A0860100D34D621000283AD000
:1036200038B5044602681D4B9A4203D0AF211C48AE
:10363000FDF724FF6368062B1ED8A368B3F5805FEF
:103640001FD223684CF6CC421A60236845F25552CB
:103650001A60236862685A602368A2689A60FFF75C
:1036600001F805462368DA6882B1FEF7FBFF401BCC
:103670003028F7D903200DE0B0210948FDF7FEFE00
:10368000DBE7B1210648FDF7F9FEDAE74AF6AA22A0
:103690001A60002038BD0120704700BF0030004094
:1036A0005078000803684AF6AA221A600020704782
:1036B00030B583B0044603680F2B29D8236813F074
:1036C000010F3DD06368012B01D9052B25D1A24BF9
:1036D0009B6803F00C03042B29D09F4B9B6803F0DD
:1036E0000C03082B1ED022799C4B1A706368002BA8
:1036F00050D0FEF7B7FF0546974B1B6813F4003F09
:103700001ED1FEF7AFFF401B6428F5D90320E3E18B
:10371000F5219348FDF7B2FED0E7FA219048FDF776
:10372000ADFED4E78C4B5B6813F4800FDBD08A4B83
:103730001B6813F4003F03D06368002B00F0C781BF
:10374000236813F0020F5CD0E368012B31D82369A2
:103750001F2B34D8804B9B6813F00C0F3AD07E4B54
:103760009B6803F00C03082B2FD0E368002B73D069
:103770007C4B01221A60FEF775FF0546764B1B68ED
:1037800013F0020F59D1FEF76DFF401B0228F5D947
:103790000320A1E1FEF766FF05466F4B1B6813F49B
:1037A000003FCDD0FEF75EFF401B6428F5D9032013
:1037B00092E14FF496716A48FDF760FEC7E740F268
:1037C0002D116748FDF75AFEC4E7634B5B6813F49D
:1037D000800FCAD1604B1B6813F0020F03D0E3685F
:1037E000012B40F076815C48036823F0F8032169DF
:1037F000F82292FAA2F2B2FA82F201FA02F213432A
:103800000360236813F0080F50D06369012B35D88B
:103810006369002B38D0544B01221A60FEF722FF57
:1038200005464D4B5B6F13F0020F3FD1FEF71AFFB9
:10383000401B0228F5D903204EE14748036823F0D6
:10384000F8032169F82292FAA2F2B2FA82F201FA9E
:1038500002F213430360D4E7424B00221A60FEF7E2
:1038600001FF05463C4B1B6813F0020FC9D0FEF761
:10387000F9FE401B0228F5D903202DE140F26D111D
:103880003748FDF7FBFDC3E7374B00221A60FEF710
:10389000E9FE0546304B5B6F13F0020F06D0FEF7D2
:1038A000E1FE401B0228F5D9032015E1236813F03F
:1038B000040F5FD0A368012B01D9052B1FD1002372
:1038C0000193254B1A6C42F080521A641B6C03F072
:1038D00080530193019B254A136843F4807313605E
:1038E000FEF7C0FE0546214B1B6813F4807F0CD108
:1038F000FEF7B8FE401B0228F5D90320ECE040F2A9
:1039000097111748FDF7BAFDD9E7227A184B1A70BC
:10391000A36883B1FEF7A6FE05460F4B1B6F13F09D
:10392000020F27D1FEF79EFE401B41F288339842DA
:10393000F3D90320D0E0FEF795FE0546064B1B6F3A
:1039400013F0020F16D0FEF78DFE401B41F28833B4
:103950009842F3D90320BFE0003802400238024009
:103960009078000800004742800E474200700040F7
:1039700070380240A369022B39D8A369002B00F0EC
:10398000AA80574A926802F00C02082A00F0A6802A
:10399000022B40F08880E36913B1B3F5800F2CD17E
:1039A000236A3F2B2FD8636A323BB3F5BF7F30D8F1
:1039B000A36A022B05D0042B03D0062B01D0082BC1
:1039C0002DD1E36A043B0B2B2FD8464B00221A6003
:1039D000FEF748FE0546424B1B6813F0007F2AD0D5
:1039E000FEF740FE401B0228F5D9032074E04FF497
:1039F000E6713D48FDF742FDBFE740F2D5113A4878
:103A0000FDF73CFDCCE74FF4EB713748FDF736FD91
:103A1000C9E740F2D7113448FDF730FDC8E74FF44D
:103A2000EC713148FDF72AFDCBE740F2D9112E4861
:103A3000FDF724FDC9E7E369226A1343616A47F68B
:103A4000C07292FAA2F2B2FA82F201FA02F21343BF
:103A5000A26A5208013A4FF4403191FAA1F1B1FA49
:103A600081F18A401343E16A4FF0706292FAA2F248
:103A7000B2FA82F201FA02F21343194A5360194B67
:103A800001221A60FEF7EEFD0446154B1B6813F089
:103A9000007F06D1FEF7E6FD001B0228F5D90320C2
:103AA0001AE0002018E00F4B00221A60FEF7DAFD42
:103AB00004460B4B1B6813F0007F06D0FEF7D2FDC7
:103AC000001B0228F5D9032006E0002004E00120B5
:103AD00002E0012000E0002003B030BD0120FBE740
:103AE0000038024060004742907800081D4B9B68F8
:103AF00003F00C03042B30D0082B30D1194B58683D
:103B000000F03F005B6813F4800F16D0154B5B6824
:103B100047F6C07393FAA3F30020124B5B6803F4DB
:103B200040334FF4403292FAA2F2B2FA82F2D3401A
:103B300001335B00B0FBF3F070470B4AB2FBF0F2CD
:103B4000084B586847F6C073184093FAA3F3B3FACA
:103B500083F3D84000FB02F0DFE700207047024803
:103B6000704700BF003802400024F40070B50446DE
:103B70000D460368013B0E2B5ED80F2D62D88C4B8F
:103B80001B6803F00F03AB4208D2EBB2884A1370F4
:103B9000136803F00F03AB4240F00481236813F075
:103BA000020F18D0A3687BB1802B0DD0902B0BD0C7
:103BB000A02B09D0B02B07D0C02B05D0D02B03D021
:103BC000E02B01D0F02B43D17A4A936823F0F00325
:103BD000A1680B439360236813F0010F7FD06368E3
:103BE000032B3BD86368012B3ED09A1E012A42D991
:103BF000704A126812F0020F00F0D6806D498A6890
:103C000022F0030213438B60FEF72CFD0646636827
:103C1000012B37D0022B44D0032B51D0654B9B682E
:103C200013F00C0F5BD0FEF71DFD801B41F28833B3
:103C30009842F3D90320A8E040F237215E48FDF70F
:103C40001DFC9AE74FF40E715B48FDF717FC96E7F1
:103C500040F24F215848FDF711FCB5E740F25621DC
:103C60005548FDF70BFCBDE7524A126812F4003FBD
:103C7000C4D1012089E04F4A126812F0007FBDD103
:103C8000012082E04B4B9B6803F00C03042B26D0F1
:103C9000FEF7E8FC801B41F288339842F2D90320FA
:103CA00073E0444B9B6803F00C03082B17D0FEF71E
:103CB000D9FC801B41F288339842F2D9032064E09A
:103CC0003C4B9B6803F00C030C2B08D0FEF7CAFC9E
:103CD000801B41F288339842F2D9032055E0344BDF
:103CE0001B6803F00F03AB4207D9EAB2304B1A70DE
:103CF0001B6803F00F03AB4258D1236813F0040F85
:103D000014D0E3685BB1B3F5805F08D0B3F5A05F72
:103D100005D0B3F5C05F02D0B3F5E05F36D1254AD8
:103D2000936823F4E053E1680B439360236813F036
:103D3000080F15D023695BB1B3F5805F08D0B3F5E8
:103D4000A05F05D0B3F5C05F02D0B3F5E05F23D12B
:103D5000184A936823F46043216943EAC1039360DE
:103D6000FFF7C4FE134B9B6803F0F003F02292FAB6
:103D7000A2F2B2FA82F2D340104AD35CD840104B80
:103D800018600F20FEF736FC002070BD4FF42D7137
:103D90000948FDF773FBC2E740F2BB210648FDF777
:103DA0006DFBD5E70120F0E70120EEE70120ECE70D
:103DB000003C0240003802409078000880780008FB
:103DC000B4000020014B1868704700BFB400002009
:103DD00008B5FFF7F7FF074B9B6803F4E0534FF478
:103DE000E05292FAA2F2B2FA82F2D340024AD35CD3
:103DF000D84008BD003802408078000808B5FFF7B9
:103E0000E1FF074B9B6803F460434FF4604292FA72
:103E1000A2F2B2FA82F2D340024AD35CD84008BD83
:103E20000038024080780008F8B505460F4616466F
:103E30001C463BE02CB1FEF715FC069BC01AA042C5
:103E400034D32A68536823F0E00353606B68B3F5FA
:103E5000827F0BD0AB6AB3F5005F14D0012385F8E5
:103E60005130002385F85030032027E0AB68B3F5CC
:103E7000004F02D0B3F5806FECD12A68136823F0AD
:103E800040031360E6E72A68136823F400531B0419
:103E90001B0C13602A68136843F400531360DDE7BA
:103EA0000123B34209D0B4F1FF3FC3D12B689B6813
:103EB00037EA0303F4D00023F3E70020F8BD10B580
:103EC00082B0044600920B4600228021FFF7ACFF2F
:103ED000034610B9184602B010BD636D43F02003CD
:103EE00063650323F6E77047002800F0E58010B50E
:103EF00004460368714A934210D0A2F57842934277
:103F00000CD002F58062934208D002F578429342C9
:103F100004D040F20B116A48FDF7B0FA636813B1A0
:103F2000B3F5827F76D1A3682BB1B3F5806F02D051
:103F3000B3F5004F74D1E368B3F5006F01D0002BE7
:103F400074D1A369B3F5007F03D013B1B3F5802F0B
:103F500072D1E3696BB1082B0BD0102B09D0182B51
:103F600007D0202B05D0282B03D0302B01D0382BA5
:103F700068D1236A0BB1802B6AD1636A0BB1102B15
:103F80006CD1636A33B923690BB1022B6CD16369BD
:103F9000012B6FD8A36A13B1B3F5005F70D1A36A88
:103FA000B3F5005F72D094F85130002B7AD0022321
:103FB00084F851302268136823F04003136063686B
:103FC000A2681343E26813432269134362691343EF
:103FD000A26902F400721343E2691343226A134395
:103FE000A16A22680B431360638B03F00403616AC8
:103FF00022680B435360A36AB3F5005F58D0226870
:10400000D36923F40063D36100206065012384F841
:10401000513010BD4FF486712948FDF72FFA82E721
:1040200040F20D112648FDF729FA84E74FF4877115
:104030002348FDF723FA84E740F20F112048FDF7EB
:104040001DFA86E74FF488711D48FDF717FA90E7CF
:1040500040F211111A48FDF711FA8EE74FF48971F9
:104060001748FDF70BFA8CE740F215111448FDF7DD
:1040700005FA8CE74FF48B711148FDF7FFF989E7DA
:1040800040F219110E48FDF7F9F988E7E36A013BA0
:104090004FF6FE72934286D94FF48E710848FDF7B1
:1040A000EDF980E784F850302046FFF71CFF7EE7EB
:1040B0002368E26A1A61A2E70120704700300140DC
:1040C000C07800082DE9F04184B004460E469046C1
:1040D0001D46836813B1B3F5004F4AD194F85030B0
:1040E000012B00F0DF80012384F85030FEF7BAFA8C
:1040F000074694F85130DBB2012B40F0C480002E0B
:1041000000F0CC80B8F1000F00F0CA80032384F8DF
:104110005130002363652663A4F83480A4F8368008
:10412000A363A387E38763642364A368B3F5004FA5
:1041300025D0A36AB3F5005F27D023681A6812F070
:10414000400F03D11A6842F040021A60E368B3F5E9
:10415000006F27D063681BB1E38E9BB2012B4FD158
:10416000236816F8012B1A73E38E013B9BB2E3869A
:1041700046E04FF4E1714C48FDF780F9AEE7226864
:10418000136843F480431360D3E72268136823F471
:1041900000531B041B0C13602268136843F4005384
:1041A0001360CAE763681BB1E38E9BB2012B0CD18D
:1041B000236836F8022BDA60E38E013B9BB2E3867C
:1041C00003E0BDB1B5F1FF3F0FD1E38E9BB273B3F6
:1041D00023689A6812F0020FF3D036F8022BDA60E7
:1041E000E38E013B9BB2E386EFE7FEF73BFAC01B91
:1041F000A842EAD3032347E0BDB1B5F1FF3F0FD199
:10420000E38E9BB29BB123689A6812F0020FF3D041
:1042100016F8012B1A73E38E013B9BB2E386EFE79E
:10422000FEF720FAC01BA842EAD303232CE0009734
:104230002B46012202212046FFF7F6FD08B1032399
:1042400022E03A4629462046FFF739FE034680B968
:10425000A26832B903922268D168039192680392EE
:10426000039AA26AB2F5005F07D0626D62B10123C2
:104270000AE020236365012306E021680A6842F40E
:1042800080520A60F1E70223012284F851200022C3
:1042900084F85020184604B0BDE8F0810123F3E70C
:1042A0000123F1E70223F5E7C078000810B4036AA0
:1042B000046A24F001040462846924F0F00444EAEE
:1042C000021223F00A030B438261036210BC7047A1
:1042D00010B4036A23F0100303628469036A24F4B0
:1042E000704444EA023223F0A00343EA01138261DE
:1042F000036210BC7047836823F0700341F007012C
:1043000019438160704710B4846824F47F4442EA02
:1043100003230B432343836010BC704738B590F8E8
:104320003830012B00F0D8820D460446012380F876
:104330003830022380F839300B68B3F5805F11D034
:10434000B3F5005F0ED06BB1102B0BD0202B09D032
:10435000302B07D0402B05D0502B03D0602B01D041
:10436000702B52D12268936823F47F4323F07703A4
:1043700093602B68402B00F007824CD9702B00F023
:104380003A8100F2A780502B00F09C81602B40F016
:104390002B812368B74A93421FD0B3F1804F1CD0C2
:1043A000A2F57C42934218D002F58062934214D069
:1043B00002F58062934210D002F5784293420CD00D
:1043C00002F57052934208D0A2F59432934204D081
:1043D00040F6BA71A848FDF751F86B68B3F5004F85
:1043E00005D023B1022B02D00A2B40F0C181EB682B
:1043F0000F2B00F2C381EA6869682068FFF768FF45
:1044000060212068FFF777FFEEE040F66D719A4873
:10441000FDF734F8A6E7102B00F00C822ED9202BE4
:1044200000F03182302B40F0DF802368914A9342C4
:104430001FD0B3F1804F1CD0A2F57C42934218D01C
:1044400002F58062934214D002F58062934210D04C
:1044500002F5784293420CD002F57052934208D094
:10446000A2F59432934204D040F6E8718248FDF7F9
:1044700005F830212068FFF73EFFB5E0002B40F043
:10448000B38023687B4A93421FD0B3F1804F1CD086
:10449000A2F57C42934218D002F58062934214D078
:1044A00002F58062934210D002F5784293420CD01C
:1044B00002F57052934208D0A2F59432934204D090
:1044C00040F6D6716C48FCF7D9FF00212068FFF751
:1044D00012FF89E0B3F5805F45D0B3F5005F40F08F
:1044E00083802368634A934217D0B3F1804F14D07E
:1044F000A2F57C42934210D002F5806293420CD028
:1045000002F58062934208D002F57842934204D0CB
:1045100040F69A715848FCF7B1FF6B68B3F5004F4D
:1045200005D023B1022B02D00A2B40F0B980AB6832
:104530004BB1B3F5805F06D0B3F5005F03D0B3F5A0
:10454000405F40F0B380EB680F2B00F2B580EB6862
:104550006A68A9682068FFF7D6FE2268936843F46A
:104560008043936040E02368424A934237D0B3F1DE
:10457000804F34D0A2F57C42934230D002F5806265
:1045800093422CD002F58062934228D002F58062DB
:10459000934224D002F58062934220D002F570420B
:1045A00093421CD002F57052934218D002F58062FB
:1045B000934214D002F58062934210D0A2F5983253
:1045C00093420CD002F58062934208D002F58062DB
:1045D000934204D040F679712748FCF74FFF2268D8
:1045E000936823F007039360012384F83930002097
:1045F00084F8380038BD23681E4A934217D0B3F1BF
:10460000804F14D0A2F57C42934210D002F5806214
:1046100093420CD002F58062934208D002F57842B2
:10462000934204D040F682711348FCF727FF6B6871
:10463000B3F5004F04D01BB1022B01D00A2B1DD1C2
:10464000AB6843B1B3F5805F05D0B3F5005F02D02E
:10465000B3F5405F18D1EB680F2B1BD8EB686A6885
:10466000A9682068FFF74FFE2268936843F077033C
:104670009360B9E700000140F078000840F68471CB
:104680009648FCF7FBFEDBE740F685719348FCF7A4
:10469000F5FEE0E740F686719048FCF7EFFEDDE7B7
:1046A00040F69C718D48FCF7E9FE40E740F69D71AD
:1046B0008A48FCF7E3FE46E740F69E718748FCF720
:1046C000DDFE44E72368864A93422FD0B3F1804F42
:1046D0002CD0A2F57C42934228D002F5806293420E
:1046E00024D002F58062934220D002F578429342B2
:1046F0001CD002F57052934218D002F580629342AA
:1047000014D002F58062934210D0A2F59832934201
:104710000CD002F58062934208D002F58062934289
:1047200004D040F6AC716D48FCF7A8FE6B68B3F599
:10473000004F04D01BB1022B01D00A2B0CD1EB6827
:104740000F2B0FD8EA6869682068FFF7AFFD50218A
:104750002068FFF7D0FD47E740F6AF715F48FCF7F0
:104760008DFEECE74FF47B615C48FCF787FEE9E7E0
:1047700040F6BD715948FCF781FE38E640F6BE713F
:104780005648FCF77BFE36E62368554A93422FD005
:10479000B3F1804F2CD0A2F57C42934228D002F591
:1047A0008062934224D002F58062934220D002F5C9
:1047B000784293421CD002F57052934218D002F511
:1047C0008062934214D002F58062934210D0A2F529
:1047D000983293420CD002F58062934208D002F5E1
:1047E0008062934204D040F6C8713C48FCF746FE14
:1047F0006B68B3F5004F04D01BB1022B01D00A2B1C
:104800000CD1EB680F2B0FD8EA6869682068FFF7B6
:104810004DFD40212068FFF76EFDE5E640F6CB71C7
:104820002E48FCF72BFEECE740F6CC712B48FCF74A
:1048300025FEE9E723682A4A93421FD0B3F1804F4F
:104840001CD0A2F57C42934218D002F580629342BC
:1048500014D002F58062934210D002F57842934260
:104860000CD002F57052934208D0A2F594329342D4
:1048700004D040F6DC711948FCF700FE10212068D6
:10488000FFF739FDB0E62368154A93421FD0B3F114
:10489000804F1CD0A2F57C42934218D002F5806272
:1048A000934214D002F58062934210D002F5784210
:1048B00093420CD002F57052934208D0A2F5943284
:1048C000934204D040F6E2710448FCF7D7FD202162
:1048D0002068FFF710FD87E602208BE6F0780008DD
:1048E0000000014070B504460D461646274B98421D
:1048F0002FD0B0F1804F2CD0A3F57C43984228D024
:1049000003F58063984224D003F58063984220D059
:1049100003F5784398421CD003F57053984218D0A1
:1049200003F58063984214D003F58063984210D059
:10493000A3F5983398420CD003F58063984208D0D1
:1049400003F58063984204D041F27E211048FCF7C1
:1049500095FD3DB1042D05D0082D03D00C2D01D0BF
:10496000182D0CD1012303FA05F2236A23EA02036E
:104970002362236A06FA05F51D43256270BD41F2E4
:104980007F210348FCF77AFDECE700BF00000140FF
:10499000F078000838B504460D460368304A934263
:1049A00012D0B3F1804F0FD0A2F57C4293420BD0CE
:1049B00002F58062934207D002F58062934203D0F1
:1049C00002F57842934206D1E5B1042D1AD0082DA4
:1049D00018D00C2D16D0234A93422BD0224A934252
:1049E0002DD0224A93422DD0214A93422DD0214AE4
:1049F00093422FD0204A93422FD040F254411F4877
:104A0000FCF73CFD012229462068FFF76BFF236875
:104A1000134A934203D002F58062934203D15A6C49
:104A200042F400425A642268136843F001031360A1
:104A3000002038BD002DE5D0042DCFD1E2E7002DB8
:104A4000E0D0CEE7002DDDD0CEE7002DDAD0042D6A
:104A5000CDD1D7E7002DD5D0CCE7002DD2D0CCE7F3
:104A60000000014000400140004401400048014076
:104A700000180040001C004000200040F0780008B2
:104A80000268D36823F49073D3600268536923F0FB
:104A900001035361202380F83A30704790F8393091
:104AA000DBB2212B01D0022070478368B3F5805F11
:104AB00016D0036A5A1C02621A7803685A60C38CC3
:104AC000013B9BB2C3844BB90268D36823F08003D7
:104AD000D3600268D36843F04003D360002070477E
:104AE000036A1B880268C3F30803536003691BB998
:104AF000036A02330362E2E7036A01330362DEE71B
:104B00002DE9F84304464268B44B9A4200F29C8077
:104B1000E3681BB1B3F5005F40F09C80236933B1BB
:104B2000B3F5806F03D0B3F5C06F40F0998063692F
:104B30004FF6F372134200D123B940F25271A848E4
:104B4000FCF79CFC21680A6922F44052E368134395
:104B50000B612168CA6822F4164222F00C02A36895
:104B60002069034360690343E06903431343CB6057
:104B700021684A6922F44072A36913434B61E369D7
:104B8000B3F5004F72D02368964A934200F02E810D
:104B900002F58062934200F02981FFF719F900EBDA
:104BA000800000EB80006568AD00B0FBF5F58E4F2E
:104BB000A7FB05356D092E01FFF70AF900EB800010
:104BC00000EB80006568AD00B0FBF5F9FFF700F978
:104BD00000EB800000EB80006568AD00B0FBF5F5F0
:104BE000A7FB05356D094FF0640808FB15952D01ED
:104BF0003235A7FB05356D0905F0F0053544FFF7A3
:104C0000E7F800EB800000EB80006668B600B0FBC0
:104C1000F6F6FFF7DDF800EB800000EB800063683C
:104C20009B00B0FBF3F0A7FB0030400908FB1068C5
:104C30004FEA081808F13208A7FB0837C7F34317F3
:104C400023682F449F6027E140F24F716448FCF7CE
:104C500015FC5DE74FF4EA616148FCF70FFC5DE786
:104C600040F251715E48FCF709FC60E723685D4A39
:104C700093425BD002F58062934257D0FFF7A8F8C9
:104C800000EB800000EB800065686D00B0FBF5F57F
:104C9000554FA7FB05356D092E01FFF799F800EB7D
:104CA000800000EB800065686D00B0FBF5F9FFF750
:104CB0008FF800EB800000EB800065686D00B0FBB2
:104CC000F5F5A7FB05356D094FF0640808FB159550
:104CD000ED003235A7FB05356D096D0005F4F8755B
:104CE0003544FFF775F800EB800000EB8000666844
:104CF0007600B0FBF6F6FFF76BF800EB800000EBF8
:104D0000800063685B00B0FBF3F3A7FB03235B0940
:104D100008FB13684FEAC80808F13208A7FB0837F8
:104D2000C7F3421723682F449F60B5E0FFF766F88A
:104D300000EB800000EB800065686D00B0FBF5F5CE
:104D4000294FA7FB05356D092E01FFF757F800EB3A
:104D5000800000EB800065686D00B0FBF5F9FFF79F
:104D60004DF800EB800000EB800065686D00B0FB43
:104D7000F5F5A7FB05356D094FF0640808FB15959F
:104D8000ED003235A7FB05356D096D0005F4F875AA
:104D90003544FFF733F800EB800000EB80006668D5
:104DA0007600B0FBF6F6FFF729F800EB800000EB89
:104DB000800063685B00B0FBF3F3A7FB03235B0990
:104DC00008FB13684FEAC80808F13208A7FB083748
:104DD000C7F3421723682F449F605DE0A037A0000F
:104DE00020790008001001401F85EB51FFF706F8FD
:104DF00000EB800000EB80006568AD00B0FBF5F5CE
:104E0000264FA7FB05356D092E01FEF7F7FF00EBD6
:104E1000800000EB80006568AD00B0FBF5F9FEF79F
:104E2000EDFF00EB800000EB80006568AD00B0FB9B
:104E3000F5F5A7FB05356D094FF0640808FB1595DE
:104E40002D013235A7FB05356D0905F0F005354418
:104E5000FEF7D4FF00EB800000EB80006668B60030
:104E6000B0FBF6F6FEF7CAFF00EB800000EB800017
:104E700063689B00B0FBF3F0A7FB0030400908FB20
:104E800010684FEA081808F13208A7FB0837C7F383
:104E9000431723682F449F60BDE8F8831F85EB51BB
:104EA00070470000002800F0898010B5044683692F
:104EB000002B53D00368424A93420FD0A2F54C42D4
:104EC00093420BD002F58062934207D002F54C4228
:104ED000934203D0FE213B48FCF7D0FAA36943B1CB
:104EE000B3F5807F05D0B3F5007F02D0B3F5407FE6
:104EF0002FD1A36813B1B3F5805F4DD1E36913B12E
:104F0000B3F5004F4ED194F83930002B50D0242304
:104F100084F839302268D36823F40053D3602046E4
:104F2000FFF7EEFD2268136923F4904313612268B2
:104F3000536923F02A0353612268D36843F4005372
:104F4000D3600020E063202384F8393084F83A30BD
:104F500010BDFF211B48FCF791FACAE70368184A05
:104F60009342C6D0A2F54C429342C2D002F5806271
:104F70009342BED002F580629342BAD002F58062BD
:104F80009342B6D002F544429342B2D040F20311AC
:104F90000C48FCF773FAACE740F205110948FCF73E
:104FA0006DFAABE74FF483710648FCF767FAAAE79E
:104FB00084F838302046FFF773FFA8E701207047D8
:104FC000001001402079000890F83A30DBB2202B25
:104FD00020D109B312B390F83830012B20D0816270
:104FE0008285C2850023C363222280F83A2080F89C
:104FF00038300168CA6842F48072CA6001684A6940
:1050000042F001024A610168CA6842F02002CA60A7
:1050100018467047022070470120704701207047F2
:1050200002207047704708B50168CB6823F0400341
:10503000CB60202380F83930FFF7F4FF002008BD53
:1050400008B590F83A30DBB2222B40D18368B3F533
:10505000805F0ED0036903BB03685A68836A591CDA
:1050600081621A70C38D013B9BB2C385F3B10020EE
:1050700008BD826A036943B903685B68C3F3080328
:105080001380836A02338362ECE703685B68DBB2F8
:105090001380836A01338362E4E703685B68826A92
:1050A000511C816203F07F031370DBE70268D36851
:1050B00023F49073D3600268536923F001035361B2
:1050C000202380F83A30FCF71DFB0020D0E70220B7
:1050D000CEE7704710B5044602681368D16850697E
:1050E00013F00F0205D113F0200F02D011F0200FA2
:1050F00011D11AB140F20112104210D113F0800FF9
:1051000002D011F0800F6FD113F0400F02D011F0D8
:10511000400F6DD110BD2046FFF792FFFAE713F064
:10512000010F06D011F4807F03D0E26B42F0010240
:10513000E26313F0040F06D010F0010F03D0E26B0E
:1051400042F00202E26313F0020F06D010F0010FEA
:1051500003D0E26B42F00402E26313F0080F06D0C2
:1051600010F0010F03D0E26B42F00802E263E26B41
:10517000002ACFD013F0200F02D011F0200F21D140
:1051800023685B6903F04003E26B12F0080F00D163
:1051900023B32046FFF774FC23685A6912F0400FCE
:1051A00018D05A6922F040025A61636B73B1124AF7
:1051B0001A65606BFDF78CFE0028ABD0606B036D49
:1051C0009847A7E72046FFF73BFFD9E72046FFF7C0
:1051D00080FF9FE72046FFF77CFF9BE72046FFF715
:1051E00078FF0023E36395E72046FFF757FC91E73C
:1051F0002046FFF718FF8DE7FD51000808B5806BCA
:105200000023C385C384FFF764FF08BD00F060B8C6
:105210002DE9F04F8BB004460D4600F033F92A4BD0
:1052200093F900A0BAF1FF3F06460F4612D022467E
:105230002B462046294600F0CDFF834650B94FF05B
:1052400000084FF0000942464B462046294600F030
:1052500099FF20B9304639460BB0BDE8F08F0122E6
:105260001A4BCDF820B00092CDE90445CDE90245B6
:105270000193BAF1000F17D042464B4640464946CB
:1052800000F038FEBAF1020FCDE906010ED100F0B0
:10529000FFFF21230360089B83B9DDE906673046E1
:1052A00039460BB0BDE8F08FCDE90689684600F0BD
:1052B00039FB0028EBD0089B002BEED000F0E8FF74
:1052C000089B0360E9E700BFC40000205079000894
:1052D0002DE9F84F5442144323F00048684E48EA41
:1052E000D474B44284460F461FD84442044321F08C
:1052F000004A4AEAD474B4428B4616D803F14044BB
:1053000004F5801414439E4647D09C1704F0020411
:1053100044EAD1745AEA00010FD1022C41D0032C87
:1053200038D145A1D1E9000105E010461946624691
:105330003B4600F0FFFABDE8F88F58EA020122D0A0
:10534000B04536D0B2451ED0AAEB08084FEA28581F
:10535000B8F13C0F29DC002B3BDA18F13C0F38DAAE
:1053600000200021012C4AD0022C3BD0002CE2D09E
:1053700033A3D3E9002300F0DBFA33A3D3E90023FE
:1053800000F0D6FAD7E7BBF1000F1EDB30A1D1E960
:105390000001D0E73946BDE8F88FBDE8F84F00F0CE
:1053A00033B929A1D1E90001C5E729A1D1E900015B
:1053B000D8E7C24527D0022CF3D0032CB1D0012C62
:1053C0004FF0000029D00021B5E723A1D1E9000169
:1053D000B1E76046394600F08DFD00F09FFA00F01D
:1053E00013F9BFE716A3D3E9002300F0A1FA0246A0
:1053F0000B4615A1D1E9000100F09AFA9BE701F1F3
:105400000043194697E7022C12D0032C0CD0012C34
:1054100006D013A1D1E900018DE74FF000418AE7E2
:1054200011A1D1E9000186E711A1D1E9000182E7CC
:1054300011A1D1E900017EE7182D4454FB2109C0D8
:10544000075C143326A6A13C182D4454FB210940C7
:10545000182D4454FB21F93F182D4454FB21F9BF6A
:10546000182D4454FB21E93F182D4454FB21E9BF7A
:10547000D221337F7CD902C0D221337F7CD9024034
:105480000000F07F5F4A8A432DE9F0410D46064651
:1054900000F09A8000290B46044653DD5FEA215C48
:1054A00000F0A780C3F31303ACF2FF3CE20F43F418
:1054B00080131CF0010F02EB43034FEA440203D0B8
:1054C000D20F02EB4303A20000274FEA6C0C3846D0
:1054D00016214FF4001405199D4202DC5B1B2819AC
:1054E00027445B00013903EBD2734FEA54044FEABF
:1054F0004202F0D10D468E4620264FF0004109E0D1
:1055000042D0D40F013E4FEA510104EB43034FEA6E
:10551000420242D0834201EB0E04F1DD002C04EB89
:10552000010E09DB80461B1A944288BF03F1FF334A
:10553000121B0D444046E4E7BEF1000FF2DB00F120
:105540000108F0E721F00042024334D0002947D19E
:10555000E00A153B640502460028F9D0C5024BD489
:10556000002100E029465200D00201F10105F9D5E1
:1055700010462246AC40C5F1200522FA05F5A3EB02
:10558000010C45EA00038DE79442BAD8002C04EBE5
:10559000010ED1DB98460023CAE713430ED16E08F3
:1055A0007B1003F17F5303F50013FA0748BF46F061
:1055B000004603EB0C513046BDE8F081691C16BF74
:1055C000691C01374E08EBE702460B4600F068FB0A
:1055D00032462B4600F0AEF906463046BDE8F08173
:1055E000024600F0A5F902460B4600F083FC064691
:1055F000E1E70A466346B3E7224620254FF0FF3134
:10560000BBE700BF0000F07F2DE9F84FB64B21F05B
:1056100000469E420D468A46044616DDB34B9E4226
:105620000BDC08D0B249B34BB348BAF1000FD8BF76
:105630001946BDE8F88F0028F4D0224620462B46B4
:10564000294600F077F9BDE8F88FAC4B9E4200F395
:10565000B480A3F1DE739E4240F39A804FF0FF3B8B
:1056600022462B462046294600F01AFB02460B46EE
:105670008046894600F014FB83A3D3E90023064645
:105680000F4600F00DFB82A3D3E9002300F052F98E
:1056900032463B4600F004FB7FA3D3E9002300F031
:1056A00049F932463B4600F0FBFA7DA3D3E90023DB
:1056B00000F040F932463B4600F0F2FA7AA3D3E913
:1056C000002300F037F932463B4600F0E9FA78A3B0
:1056D000D3E9002300F02EF942464B4600F0E0FAF1
:1056E00075A3D3E90023804689463046394600F049
:1056F000D7FA73A3D3E9002300F01AF932463B46E8
:1057000000F0CEFA70A3D3E9002300F011F932467D
:105710003B4600F0C5FA6EA3D3E9002300F008F978
:1057200032463B4600F0BCFA6BA3D3E9002300F0FD
:10573000FFF832463B4600F0B3FA02460B464046BD
:10574000494600F0F7F822462B4600F0A9FABBF1D3
:10575000FF3F02460B462AD0694B6A4E4FEACB0BFD
:105760005B44D3E9002300F0E3F822462B4600F027
:10577000DFF8B34402460B46DBE9000100F0D8F83D
:10578000BAF1000FBFF655AF01F10041BDE8F88F47
:1057900053A3D3E9002300F0CDF800225A4B00F0C8
:1057A0000FFD00283FF45AAF2046294641E7204626
:1057B000294600F0BDF8BDE8F88F00F0AFF8534B74
:1057C0009E4204460D461FDCA3F550239E4244DC56
:1057D00002460B4600F0AEF800224B4B00F0A8F852
:1057E000002206460F464FF080432046294600F02F
:1057F000A1F802460B463046394600F07BFB4FF0DD
:10580000000B04460D462BE7414B9E421ADC00225A
:10581000404B00F08DF8002206460F463D4B2046D7
:10582000294600F03DFA0022374B00F083F802468B
:105830000B463046394600F05DFB4FF0020B044644
:105840000D460DE702460B460020334900F052FB9F
:105850004FF0030B04460D4602E700222A4B00F0EE
:1058600067F8002206460F46274B2046294600F0DF
:1058700061F802460B463046394600F03BFB4FF0DC
:10588000010B04460D46EBE611DA22E33AAD903FF8
:10589000EB0D76244B7BA93F513DD0A0660DB13F67
:1058A0006E204CC5CD45B73FFF8300922449C23FCF
:1058B0000D5555555555D53F2F6C6A2C44B4A2BF94
:1058C0009AFDDE522DDEAD3F6D9A74AFF2B0B33F5C
:1058D000711623FEC671BC3FC4EB98999999C93FD4
:1058E0009C7500883CE4377EFFFF0F440000F07F8A
:1058F000FB21F93FFB21F9BF182D4454FFFFDB3F8B
:1059000078790008587900080000F03FFFFFF23F67
:10591000FF7F03400000F83F0000F0BF21F000438C
:10592000194670470020704781F0004102E000BF37
:1059300083F0004330B54FEA41044FEA430594EA4F
:10594000050F08BF90EA020F1FBF54EA000C55EA8A
:10595000020C7FEA645C7FEA655C00F0E2804FEA5B
:105960005454D4EB5555B8BF6D420CDD2C4480EA3D
:10597000020281EA030382EA000083EA010180EA6D
:10598000020281EA0303362D88BF30BD11F0004FBB
:105990004FEA01314FF4801C4CEA113102D04042F1
:1059A00061EB410113F0004F4FEA03334CEA13332C
:1059B00002D0524263EB430394EA050F00F0A78044
:1059C000A4F10104D5F1200E0DDB02FA0EFC22FA3F
:1059D00005F2801841F1000103FA0EF2801843FA33
:1059E00005F359410EE0A5F120050EF1200E012A24
:1059F00003FA0EFC28BF4CF0020C43FA05F3C01862
:105A000051EBE37101F0004507D54FF0000EDCF1DA
:105A1000000C7EEB00006EEB0101B1F5801F1BD383
:105A2000B1F5001F0CD349085FEA30004FEA3C0C87
:105A300004F101044FEA445212F5800F80F09A807D
:105A4000BCF1004F08BF5FEA500C50F1000041EB81
:105A5000045141EA050130BD5FEA4C0C404141EB85
:105A6000010111F4801FA4F10104E9D191F0000FAC
:105A700004BF01460020B1FA81F308BF2033A3F12F
:105A80000B03B3F120020CDA0C3208DD02F1140C26
:105A9000C2F10C0201FA0CF021FA02F10CE002F161
:105AA0001402D8BFC2F1200C01FA02F120FA0CFC5A
:105AB000DCBF41EA0C019040E41AA2BF01EB0451A3
:105AC000294330BD6FEA04041F3C1CDA0C340EDCA1
